:100000000C94661B0C94971B0C94971B0C94971BD9
:100010000C94971B0C94971B0C94971B0C94971B98
:100020000C94971B0C94971B0C94971B0C94971B88
:100030000C94971B0C94971B0C94971B0C94971B78
:100040000C94971B0C94E7C80C94971B0C94971B6B
:100050000C94971B0C94971B0C94F0890C94938927
:100060000C94971B0C94095D0C94971B0C94971B94
:100070000C94971B0C94971B0C94971B0C94971B38
:100080000C94971B0C94971B0C94971B0C94971B28
:100090000C94971B0C94971B0C94971B0C94184171
:1000A0000C94971B0C94971B0C94971B0C94971B08
:1000B0000C94971B0C94971B0C94971B0C94971BF8
:1000C0000C94971B0C94971B0C94971B0C94971BE8
:1000D0000C94971B0C94971B0C94971B0C94971BD8
:1000E0000C94971B2234253429342D343134353483
:1000F0002B3539343D3442342B3547344D3451346B
:10010000553459345D342B35613465346B342B35BB
:10011000713487348934973499349B349D34A334B3
:10012000A534A734A934B334B534B734B934BF34A3
:10013000C1342B352B352B352B352B352B352B352A
:100140002B352B352B352B352B352B352B352B35AF
:100150002B352B352B352B352B352B352B352B359F
:100160002B352B352B352B352B352B352B352B358F
:100170002B352B352B352B352B352B352B352B357F
:100180002B352B352B352B352B352B352B352B356F
:100190002B352B352B352B352B352B352B352B355F
:1001A0002B352B352B352B352B352B35CB34EC34F0
:1001B000FC66FC660A6718673467426750675E67CB
:1001C0006F67266711881488038807880B884B8817
:1001D00018881C88228826882A883088348838889D
:1001E0004B883E8842884688C288C788CC88D68893
:1001F000E0885989EA88F288FA8804890E89188982
:100200002789318959893B8945894F89084AD73BD4
:100210003BCE016E84BCBFFDC12F3D6C74319ABDD5
:1002200056833DDA3D00C77F11BED9E4BB4C3E91F9
:100230006BAAAABE000000803F05A84CCDB2D44EE8
:10024000B93836A9020C50B9918688083CA6AAAAEA
:100250002ABE000000803F004E414E494E4954598D
:10026000494E46CDCCCC3D0AD7233C17B7D1387781
:10027000CC2B329595E6241FB14F0A000020410097
:1002800000C84200401C4620BCBE4CCA1B0E5AAEE1
:10029000C59D7443617264206572726F723A004E3C
:1002A0006F74205344207072696E74696E67002FFA
:1002B000005344207072696E74696E6720627974AD
:1002C0006520002E0044656C6574696F6E20666160
:1002D000696C65642C2046696C653A200046696C3F
:1002E000652064656C657465643A002E006F706506
:1002F0006E206661696C65642C2046696C653A20E5
:1003000000504944204175746F74756E65206669AC
:100310006E69736865642120507574207468652067
:100320004B702C204B6920616E64204B6420636FFE
:100330006E7374616E747320696E746F20436F6E98
:1003400066696775726174696F6E2E680050494402
:10035000204175746F74756E65206661696C6564A3
:10036000212074696D656F75740020403A006F6BD1
:1003700020543A006F6B20423A00504944204175A6
:10038000746F74756E65206661696C6564212054B4
:10039000656D706572617475726520746F6F206829
:1003A00069676800204B643A2000204B693A2000BE
:1003B000204B703A200020436C61736963205049E0
:1003C0004420002054753A2000204B753A2000202C
:1003D0006D61783A2000206D696E3A200020643A01
:1003E000200020626961733A200050494420417521
:1003F000746F74756E652073746172740050494433
:10040000204175746F74756E65206661696C6564F2
:100410002E20426164206578747275646572206E66
:10042000756D6265722E000D0A003F004C494E55F5
:100430005A000D0A00556E6B6E6F776E20636F6DFC
:100440006D616E643A2000544553540D0A00220039
:10045000556E6B6E6F776E20636F6D6D616E643A73
:10046000202200456C656374726F6E6963735F74FC
:10047000657374004163746976652045787472759C
:100480006465723A2000496E76616C696420657813
:1004900074727564657200540020423A3000204244
:1004A0003A31006F6B20523A0020633A0020643AE0
:1004B0000020693A0020703A006F6B002200556EF0
:1004C0006B6E6F776E20636F6D6D616E643A202284
:1004D000006F70656E0054524947474552454400CD
:1004E0007A5F6D696E3A20006F70656E00545249F4
:1004F00047474552454400795F6D61783A20006F67
:1005000070656E0054524947474552454400785F34
:100510006D61783A20005265706F7274696E672061
:10052000656E6473746F7020737461747573005AB0
:100530003A00593A0020436F756E7420583A2000F3
:10054000453A005A3A00593A00583A004649524D45
:10055000574152455F4E414D453A4D61726C696E4F
:1005600020556C74696D616B6572323B20537072FB
:10057000696E7465722F6772626C206D6173687545
:100580007020666F722067656E36204649524D575F
:100590004152455F55524C3A687474703A2F2F6738
:1005A00069746875622E636F6D2F556C74696D6127
:1005B0006B65722050524F544F434F4C5F5645521B
:1005C00053494F4E3A312E30204D414348494E4514
:1005D0005F545950453A556C74696D616B65722072
:1005E00045585452554445525F434F554E543A3145
:1005F0000A0020423A0020453A00543A003F0020C9
:10060000573A0020453A00543A002042403A002030
:10061000403A00202F0020423A00202F006F6B202C
:10062000543A002569206D696E2C20256920736578
:100630006300456E642066696C65206C69737400A4
:10064000426567696E2066696C65206C6973740029
:100650004350450041425300504C41002020506C13
:10066000616E6E6572427566666572427974657315
:100670003A20002046726565204D656D6F72793AAB
:1006800020004A756E203135203230313800436FFA
:100690006D70696C65643A20004C494E555A0020D3
:1006A0007C20417574686F723A20004A756E203163
:1006B0003520323031382030393A34373A3533004A
:1006C000204C61737420557064617465643A200035
:1006D000312E302E30004D61726C696E2000205337
:1006E0006F66747761726520526573657400205778
:1006F00061746368646F672052657365740020429B
:10070000726F776E206F7574205265736574002068
:1007100045787465726E616C205265736574005023
:100720006F7765725570007374617274004D383460
:10073000205820592045006563686F3A00256920DC
:10074000686F757273202569206D696E75746573A5
:1007500000446F6E65207072696E74696E67206602
:10076000696C65005072696E7465722073746F7085
:100770007065642064756520746F206572726F7295
:10078000732E2046697820746865206572726F72D6
:1007900020616E6420757365204D39393920746F7E
:1007A00020726573746172742E202854656D7065B3
:1007B0007261747572652069732072657365742E39
:1007C00020536574206974206166746572207265B7
:1007D0007374617274696E6729006F6B004E6F20CD
:1007E0004C696E65204E756D62657220776974681C
:1007F00020636865636B73756D2C204C6173742086
:100800004C696E653A20004E6F20436865636B73D8
:10081000756D2077697468206C696E65206E756DE2
:100820006265722C204C617374204C696E653A20AD
:1008300000636865636B73756D206D69736D6174BA
:1008400063682C204C617374204C696E653A2000FB
:100850004C696E65204E756D626572206973206EFD
:100860006F74204C617374204C696E65204E756DF9
:100870006265722B312C204C617374204C696E655B
:100880003A20004572726F723A004D313130006586
:1008900072726F722077726974696E6720746F204C
:1008A00066696C6500205A3A0020593A0020583A8F
:1008B00000656E6473746F7073206869743A200009
:1008C0006563686F3A00446F6E6520736176696E88
:1008D000672066696C652E006F6B004D32390043EE
:1008E000414E43454C00507265763A2000000000AE
:1008F000000000005F00000007000700147F147F65
:1009000014242A7F2A122313086462364955225080
:100910000005030000001C2241000041221C0008C9
:100920002A1C2A0808083E08080050300000080861
:10093000080808006060000020100804023E5149C9
:10094000453E00427F400042615149462141454BAE
:10095000311814127F1027454545393C4A49493022
:1009600001710905033649494936064949291E00DE
:1009700036360000005636000000081422411414D8
:100980001414144122140800020151090632497955
:10099000413E7E1111117E7F494949363E41414118
:1009A000227F4141221C7F494949417F09090101B8
:1009B0003E414151327F0808087F00417F410020BD
:1009C00040413F017F081422417F404040407F0268
:1009D00004027F7F0408107F3E4141413E7F0909A8
:1009E00009063E4151215E7F091929464649494978
:1009F0003101017F01013F4040403F1F2040201F47
:100A00007F2018207F6314081463030478040361B3
:100A10005149454300007F414102040810204141F3
:100A20007F000004020102044040404040000102F7
:100A3000040020545454787F484444383844444493
:100A400020384444487F3854545418087E09010221
:100A5000081454543C7F0804047800447D4000206E
:100A600040443D00007F10284400417F40007C044A
:100A70001804787C0804047838444444387C1414FE
:100A80001408081414187C7C0804040848545454AE
:100A900020043F4440203C4040207C1C2040201C3F
:100AA0003C4030403C44281028440C5050503C44BA
:100AB00064544C44000836410000007F00000041AF
:100AC00036080008082A1C08081C2A08084D383473
:100AD00020582059204500473238205830205930BE
:100AE0000047393000473120462569205A3530000B
:100AF00047393100473120462569204530004739C4
:100B00003220452569004D343031003C20424143BC
:100B10004B003C2052455455524E004E6F20696E9A
:100B2000666F20617661696C61626C65004E6F7AF8
:100B30007A6C653A20006D006D004D6174657269D4
:100B4000616C3A200054696D653A20003B4D545960
:100B500050453A003B4E4F5A5A4C455F4449414D2F
:100B6000455445523A003B4D4154455249414C3A57
:100B7000003B54494D453A00466F6C646572004332
:100B8000616E6E6F7420656E746572207375626439
:100B900069723A20005344204341524400473120B7
:100BA000463132303030205835205931300047320C
:100BB00038003B464C41564F523A556C7469474396
:100BC0006F6465003B464C41564F523A556C746910
:100BD00047436F6465004E6F2066696C65732066DD
:100BE0006F756E6421004F4B004F4B00526561647E
:100BF000696E6720636172642E2E2E00506C6561F1
:100C0000736520696E736572742063617264004E4F
:100C10006F2053442D43415244210050726570614E
:100C200072696E6720746F207072696E743A004842
:100C3000656174696E672075702E2E2E0041424FDB
:100C400052540054554E45004300432F00436C69F5
:100C5000636B20746F2072657475726E00526F74CE
:100C600061746520746F2065787472756465004ED8
:100C70006F7A7A6C652074656D70657261747572D7
:100C8000653A004C494E555A004A756E2031352060
:100C9000323031382031303A33383A323900526507
:100CA0007475726E006D00204D61743A003A005008
:100CB00072696E74696E673A003A004D61636869E3
:100CC0006E65206F6E20666F723A005265747572A1
:100CD0006E00746F2064656661756C743F005265C8
:100CE0007365742065766572797468696E67004E05
:100CF0004F00594553003F3F3F0043757272656E88
:100D00007420450043757272656E74205A004375F5
:100D10007272656E7420582F59004D61782073707F
:100D2000656564205A004D617820737065656420A4
:100D300059004D6178207370656564205800582F04
:100D400059204A65726B00416363656C657261741A
:100D5000696F6E003C2052455455524E006D410063
:100D60006D41006D41006D6D2F736563006D6D2FDA
:100D7000736563006D6D2F736563006D6D2F736513
:100D800063006D6D2F7365635E32006D41004375C6
:100D90007272656E742045006D4100437572726514
:100DA0006E74205A006D410043757272656E742036
:100DB000582F59006D6D2F736563004D6178207356
:100DC00070656564205A006D6D2F736563004D6119
:100DD000782073706565642059006D6D2F736563AD
:100DE000004D61782073706565642058006D6D2F2B
:100DF00073656300582F59204A65726B0030306D5F
:100E00006D2F7365635E3200416363656C6572616B
:100E100074696F6E004D4F54494F4E003F3F3F0085
:100E200020476C6F77207768656E20646F6E650071
:100E3000204F6E207768696C65207072696E7469E6
:100E40006E670020416C77617973204F66660020E1
:100E5000416C77617973204F6E00427269676874E4
:100E60006E657373003C2052455455524E00250068
:100E700025004272696768746E657373004C45445F
:100E8000004732382058302059300047312046255D
:100E90006920582569205925690047323820583083
:100EA0002059300052455455524E00534554544930
:100EB0004E4753004348414E474500666F72206DD0
:100EC0006174657269616C2072656D6F76616C002A
:100ED00048656174696E67207072696E74686561D7
:100EE0006400526576657273696E67206D61746522
:100EF0007269616C0052656D6F7665206D61746515
:100F00007269616C0043414E43454C005245414477
:100F10005900250046616E3A200043002500466CCA
:100F20006F773A006D6D004D4154455249414C0078
:100F30006D6174657269616C20696E736572746944
:100F40006F6E00436F6F6C696E67207072696E74AC
:100F50006865616420666F720048656174696E67D8
:100F6000207072696E746865616420666F720061DA
:100F7000626F766520746865206172726F772E00EB
:100F8000796F7572206D616368696E652C00667299
:100F90006F6D20746865206261636B73696465209E
:100FA0006F6600496E73657274206E6577206D619F
:100FB00074657269616C0043414E43454C00524573
:100FC0004144590053657474696E67732053746F9C
:100FD000726564002044002049002020204D3330F9
:100FE000312050005049442073657474696E6773F2
:100FF0003A00205A0020590020204D323036205827
:1010000000486F6D65206F666673657420286D6D8E
:10101000293A00204500205A002058002042002094
:10102000540020204D323035205300416476616EEB
:10103000636564207661726961626C65733A2053FE
:101040003D4D696E20666565647261746520286D2A
:101050006D2F73292C20543D4D696E20747261767A
:10106000656C20666565647261746520286D6D2FFE
:1010700073292C20423D6D696E696D756D20736515
:10108000676D656E742074696D6520286D73292CF9
:1010900020583D6D6178696D756D205859206A65DD
:1010A000726B20286D6D2F73292C20205A3D6D61A5
:1010B00078696D756D205A206A65726B20286D6D98
:1010C0002F73292C2020453D6D6178696D756D2049
:1010D00045206A65726B20286D6D2F73290020549E
:1010E0000020204D323034205300416363656C652D
:1010F000726174696F6E3A20533D616363656C651C
:10110000726174696F6E2C20543D726574726163F4
:101110007420616363656C65726174696F6E002031
:101120004500205A0020590020204D3230312058EF
:10113000004D6178696D756D20416363656C657202
:101140006174696F6E20286D6D2F7332293A00200B
:101150004500205A0020590020204D3230332058BD
:10116000004D6178696D756D2066656564726174A6
:10117000657320286D6D2F73293A00204500205A91
:101180000020590020204D393220580053746570DA
:10119000732070657220756E69743A005630313074
:1011A0000053746F7265642073657474696E67733D
:1011B0002072657472696576656400486172646363
:1011C0006F6465642044656661756C742053657452
:1011D00074696E6773204C6F616465640065636851
:1011E0006F3A002200656E717565696E6720220096
:1011F0002200656E717565696E67202200000066C9
:10120000430080604300803B450000000000000078
:101210000000000000000066430080604300000002
:10122000005072696E74696E672077697468205522
:1012300053422E2E2E00756C74696D616B65722E93
:10124000636F6D2F4552303700476F20746F3A003F
:1012500058206F7220592073776974636820737403
:1012600075636B00756C74696D616B65722E636F6D
:101270006D2F4552303700476F20746F3A00582069
:101280006F722059207377697463682062726F6B84
:10129000656E00756C74696D616B65722E636F6D40
:1012A0002F4552303600476F20746F3A005A207332
:1012B000776974636820737475636B00756C746907
:1012C0006D616B65722E636F6D2F4552303500472F
:1012D0006F20746F3A005A207377697463682062D4
:1012E000726F6B656E00756C74696D616B65722EE3
:1012F000636F6D2F4552303400476F20746F3A0092
:1013000053616665747920636972637569740075E9
:101310006C74696D616B65722E636F6D2F45523011
:101320003300476F20746F3A00486561746572201E
:101330006572726F7200756C74696D616B65722E87
:10134000636F6D2F4552303200476F20746F3A0043
:1013500054656D702073656E736F72204245440052
:10136000756C74696D616B65722E636F6D2F45527C
:10137000303100476F20746F3A0054656D702073F0
:10138000656E736F72004552524F52202D20535498
:101390004F50504544004D41494E54454E414E43F7
:1013A00045004D4154455249414C005052494E541C
:1013B00000466F7277617264696E67206D61746553
:1013C0007269616C00636F6D6573206F7574207452
:1013D0006865206E6F7A7A6C650057616974207455
:1013E000696C6C206D6174657269616C0043414E7B
:1013F00043454C00524541445900696E204D4154CB
:10140000455249414C2E54585400746F20746865FD
:101410002053442063617264005361766564206DDB
:101420006174657269616C73004F6B000A006469D6
:10143000616D657465723D000A00666C6F773D00F2
:101440000A0066616E5F73706565643D000A003D69
:101450000072657472616374696F6E5F7370656545
:10146000645F000A003D0072657472616374696FA5
:101470006E5F6C656E6774685F000A003D0074659E
:101480006D70657261747572655F000A0074656DD8
:1014900070657261747572653D000A006E616D65FC
:1014A0003D005B6D6174657269616C5D0A00526537
:1014B0006164696E6720636172642E2E2E00506C29
:1014C0006561736520696E7365727420636172640F
:1014D000004E6F2053442D43415244210066726FE9
:1014E0006D207468652053442063617264006D61EF
:1014F00074657269616C206C6F6164004572726F13
:101500007220647572696E670066726F6D20746810
:10151000652053442063617264004C6F61646564AC
:10152000206D6174657269616C73004F6B006C6350
:10153000645F6D6174657269616C5F636865636B3C
:101540005F72657472616374696F6E5F73706565F5
:101550006420666F756E642070726F626C656D00DA
:1015600072657472616374696F6E5F7370656564D0
:101570005F006C63645F6D6174657269616C5F6369
:101580006865636B5F72657472616374696F6E5FC7
:101590006C656E67746820666F756E642070726F1C
:1015A000626C656D0072657472616374696F6E5F01
:1015B0006C656E6774685F006C63645F6D61746511
:1015C0007269616C5F636865636B5F74656D70659C
:1015D00072617475726520666F756E642070726FCB
:1015E000626C656D0074656D7065726174757265AD
:1015F0005F006C63645F6D6174657269616C5F63E9
:101600006865636B5F6D6174657269616C5F646965
:10161000616D6574657220666F756E642070726F9F
:10162000626C656D006469616D65746572006C6300
:10163000645F6D6174657269616C5F636865636B3B
:101640005F6D6174657269616C5F666C6F7720664F
:101650006F756E642070726F626C656D00666C6F82
:1016600077006C63645F6D6174657269616C5F6360
:101670006865636B5F66616E5F7370656564206645
:101680006F756E642070726F626C656D0066616E5E
:101690005F7370656564006C63645F6D617465722F
:1016A00069616C5F636865636B5F6265645F7465E5
:1016B0006D706572617475726520666F756E6420F9
:1016C00070726F626C656D006265645F74656D70E9
:1016D00065726174757265006C63645F6D617465D9
:1016E0007269616C5F636865636B5F74656D70657B
:1016F00072617475726520666F756E642070726FAA
:10170000626C656D004572726F723A0074656D703F
:101710006572617475726500416464696E67206DFD
:101720006174657269616C20006E616D65005B6D4E
:101730006174657269616C5D0053746172742072CA
:10174000656164206D6174657269616C7300466FD8
:10175000756E64206F6E20636172642E004E6F2080
:101760006578706F72742066696C6500526561649B
:10177000696E6720636172642E2E2E00506C656165
:10178000736520696E736572742063617264004EC4
:101790006F2053442D4341524421005072696E74AE
:1017A00065722068616C7465642E206B696C6C28AE
:1017B000292063616C6C656421005072696E7465E8
:1017C000722073746F707065642064756520746F27
:1017D000206572726F72732E204669782074686576
:1017E000206572726F7220616E6420757365204D82
:1017F00039393920746F20726573746172742E20C8
:101800002854656D70657261747572652069732006
:1018100072657365742E2053657420697420616647
:101820007465722072657374617274696E672900E1
:101830004D32313820496E76616C69642065787468
:10184000727564657220004D31303920496E7661C1
:101850006C696420657874727564657220004D311E
:10186000303520496E76616C6964206578747275D4
:1018700064657220004D31303420496E76616C69A8
:10188000642065787472756465722000456E6473B7
:10189000746F70207374696C6C20707265737365FB
:1018A00064206166746572206261636B696E672093
:1018B0006F66662E20456E6473746F702073747546
:1018C000636B3F000000E0400000E0400000E040AB
:1018D000456E6473746F70206E6F742070726573E0
:1018E00073656420616674657220686F6D696E67E8
:1018F00020646F776E2E20456E6473746F70206263
:10190000726F6B656E3F00456E6473746F70206E0E
:101910006F7420707265737365642061667465729C
:1019200020686F6D696E6720646F776E2E20456E3C
:101930006473746F702062726F6B656E3F0001019B
:10194000FF000066430080604300803B45000021AB
:1019500010422063308440A550C660E7700881299A
:10196000914AA16BB18CC1ADD1CEE1EFF131121032
:101970000273325222B5529442F772D662399318EA
:10198000837BB35AA3BDD39CC3FFF3DEE36224433E
:101990003420040114E664C774A44485546AA54B3A
:1019A000B528850995EEE5CFF5ACC58DD5533672D2
:1019B0002611163006D776F6669556B4465BB77A8A
:1019C000A719973887DFF7FEE79DD7BCC7C448E55E
:1019D000588668A7784008611802282338CCC9EDDA
:1019E000D98EE9AFF9488969990AA92BB9F55AD472
:1019F0004AB77A966A711A500A333A122AFDDBDC2A
:101A0000CBBFFB9EEB799B588B3BBB1AABA66C877D
:101A10007CE44CC55C222C033C600C411CAEED8F79
:101A2000FDECCDCDDD2AAD0BBD688D499D977EB611
:101A30006ED55EF44E133E322E511E700E9FFFBEC9
:101A4000EFDDDFFCCF1BBF3AAF599F788F8891A99C
:101A500081CAB1EBA10CD12DC14EF16FE18010A173
:101A600000C230E3200450254046706760B9839877
:101A700093FBA3DAB33DC31CD37FE35EF3B10290C3
:101A800012F322D2323542145277625672EAB5CB43
:101A9000A5A89589856EF54FE52CD50DC5E234C313
:101AA00024A01481046674476424540544DBA7FA17
:101AB000B79987B8975FE77EF71DC73CD7D326F263
:101AC000369106B01657667676154634564CD96D63
:101AD000C90EF92FE9C899E9898AB9ABA9445865B3
:101AE0004806782768C018E1088238A3287DCB5CB7
:101AF000DB3FEB1EFBF98BD89BBBAB9ABB754A5403
:101B00005A376A167AF10AD01AB32A923A2EFD0F82
:101B1000ED6CDD4DCDAABD8BADE89DC98D267C0752
:101B20006C645C454CA23C832CE01CC10C1FEF3E56
:101B3000FF5DCF7CDF9BAFBABFD98FF89F176E36A2
:101B40007E554E745E932EB23ED10EF01E3C205256
:101B5000455455524E0054656D70657261747572CE
:101B6000653A20004300430054656D7065726174EE
:101B7000757265004D4154455249414C003C20521C
:101B8000455455524E0052657472616374696F6EAC
:101B90003A20006D6D2F73006D6D20004D4154454E
:101BA0005249414C0052657472616374206C656ED9
:101BB000677468003F3F3F00526574726163742030
:101BC0007370656564003C2052455455524E006D5B
:101BD0006D2F736563006D6D006D6D2F7365630010
:101BE00052657472616374207370656564006D6D15
:101BF0000052657472616374206C656E677468006E
:101C000052455452414354494F4E003C2052455492
:101C100055524E004E6577207072657365740050A2
:101C200052455345545300505000545055203935B7
:101C300041004350452B004E796C6F6E00504300BD
:101C40004350450041425300504C41006C63645F77
:101C50006D6174657269616C5F72657365745F64F0
:101C6000656661756C7473006563686F3A000000A7
:101C7000000018070100A807140030082800B80861
:101C80003C0038095000C0096400480A7800C80ABE
:101C90008C00480BA000C80BB400480CC800C80C4E
:101CA000DC00400DF000C00D0401380E1801B00E2C
:101CB0002C01280F4001A00F540118106801881052
:101CC0007C01001190013013F401481558024017AF
:101CD000BC0228192003F01A8403A81CE803401E44
:101CE0004C04202D20496E76616C696420657874FF
:101CF0007275646572206E756D6265722021003A9E
:101D000020457874727564657220737769746368AE
:101D10006564206F66662E204D415854454D502015
:101D20007472696767657265642021003A2045789E
:101D30007472756465722073776974636865642072
:101D40006F66662E204D494E54454D502074726981
:101D50006767657265642021004572726F723A0090
:101D600000002100240027002A002D00300033004D
:101D700001010000040107010A0100002200250002
:101D800028002B002E003100340002010000050164
:101D900008010B01050505050705080808080202EA
:101DA00002020A0A080804040404010101010101F5
:101DB00001010303030303030303040707070C0CD8
:101DC0000C0C0C0C0C0C020202020606060606069F
:101DD00006060B0B0B0B0B0B0B0B01021020200844
:101DE0000810204010204080020102010804020176
:101DF00001020408102040808040201008040201E5
:101E0000800402018040201008040201080402013D
:101E100001020408102040800102040810204080C4
:101E200000000A0B02090C0D0E0807030401000054
:101E300000000000000000000000000000000000A2
:101E4000000000000000000000000000121110005F
:101E50000000000000000000000000000000000082
:101E6000000000000000473238205A3000746865D6
:101E700020726967687420636F726E65722E2E2EF1
:101E800000526570656174207468697320666F72B2
:101E90000031302F323100434F4E54494E554500EA
:101EA000444F4E45004D38340047312046313230E2
:101EB000303020583131302059313000746F206972
:101EC0006E73657274206D6174657269616C2E0049
:101ED000746865206E65787420737465702069730A
:101EE00000746865206275696C64706C617465006B
:101EF0004E6F772074686174207765206C65766515
:101F00006C65640031312F323100434F4E54494EDD
:101F1000554500556C74696D616B6572322E0069B0
:101F20006E7365727420696E2074686973006D61E8
:101F300074657269616C20796F752077696C6C00CB
:101F40004E6578742C2073656C65637420746865C5
:101F50000031322F32310052454144590053656CF3
:101F600065637420746865206D6174657269616C65
:101F700000206173206D6174657269616C2C0031A1
:101F8000332F3231004D4154455249414C00697361
:101F900020746869732072696768743F00596F75AF
:101FA00020686176652063686F73656E0031342F39
:101FB0003231004E4F005945530069742069732037
:101FC0007573696E672E006F66206D617465726946
:101FD000616C006B6E6F77732077686174206B693A
:101FE0006E64004E6F7720796F757220556C74693E
:101FF0006D616B6572320031352F323100434F4EC7
:1020000054494E5545006D6174657269616C206C70
:102010006F6164696E67007072696E74686561648F
:102020002068656174696E6720666F7200506C6528
:1020300061736520776169742C0031362F3231006D
:1020400061626F766520746865206172726F772EA9
:1020500000796F757220556C74696D616B657232B1
:102060002C0066726F6D2074686520726561722045
:102070006F6600496E73657274206E6577206D61BE
:1020800074657269616C0031372F323100434F4EF5
:1020900054494E5545004C6F6164696E67206D610F
:1020A00074657269616C2E2E2E0031382F3231002A
:1020B00066726F6D206E6F7A7A6C652E2E2E006DB3
:1020C0006174657269616C2065786974730050751C
:1020D000736820627574746F6E207768656E003166
:1020E000392F323100434F4E54494E5545006D61F2
:1020F0006B652061203344205072696E7421004961
:10210000276D207265616479206C657427730032D5
:10211000302F32310041524520594F552052454110
:1021200044593F00746F207072696E742069742185
:1021300000616E642070726573732074686520623C
:102140007574746F6E006F6E207468652053442D33
:10215000636172640053656C656374206120707202
:10216000696E742066696C650032312F3231004C23
:1021700045542753205052494E54005265616469BA
:102180006E6720636172642E2E2E0032312F323141
:1021900000796F757220556C74696D616B65723270
:1021A0002E2E2E00746861742063616D652077693E
:1021B000746800506C6561736520696E7365727434
:1021C0002053442D636172640032312F323100524A
:1021D000455455524E00414456414E4345440042F9
:1021E00055494C442D7C504C415445003F3F3F00E5
:1021F000466163746F7279207265736574005275FD
:102200006E74696D652073746174730056657273C2
:10221000696F6E004D6F74696F6E207365747469B9
:102220006E6773005365742066616E207370656518
:1022300064004D6F7665206D6174657269616C0034
:10224000496E73657274206D6174657269616C00AA
:102250005261697365206275696C64706C61746544
:102260002035636D00486F6D65206275696C647020
:102270006C61746500486F6D652068656164004835
:102280006561747570206E6F7A7A6C65004C454498
:102290002073657474696E6773003C205245545511
:1022A000524E004C494E555A0025004300432F0022
:1022B000250047323820583020593000250046612B
:1022C0006E2073706565640047312046256920588B
:1022D0002569205925690047323820582059004780
:1022E000393000473120462569205A3530004739BA
:1022F00031004D383400473238205A004D38340010
:102300004732382058205900414456414E434544F5
:10231000004300432F00436C69636B20746F20728D
:10232000657475726E004E6F7A7A6C652074656D97
:1023300070657261747572653A005344206361720E
:1023400064206F6B006F70656E526F6F74206661F2
:10235000696C656400766F6C756D652E696E697465
:10236000206661696C6564004572726F723A005351
:102370004420696E6974206661696C006563686FEA
:102380003A004D3234004D323320257300617574AC
:102390006F25692E670054696D65206C6566740051
:1023A00054696D65206C65667420756E6B6E6F7711
:1023B0006E004300430048656174696E6720627572
:1023C000696C64706C61746500430043004865612A
:1023D00074696E67005072696E74696E673A005076
:1023E000415553450054554E450054554E45004304
:1023F00048414E47457C4D4154455249414C00525D
:102400004553554D457C5052494E5400756C746986
:102410006D616B65722E636F6D2F455230380047CA
:102420006F20746F3A0072656164696E672053446F
:102430002D6361726421004572726F722077686942
:102440006C650052455455524E20544F204D414921
:102450004E006F66207072696E74696E67206172DB
:102460006561005472696564207072696E74696E8A
:1024700067206F7574004552524F523A00524554CE
:1024800055524E20544F204D41494E0066726F6D9B
:102490002074686520736C696365722E00736574BF
:1024A00074696E6720776974682073657474696EE7
:1024B00067006F76657272696465206D6163686933
:1024C0006E6500546869732066696C652077696C75
:1024D0006C0043414E43454C00434F4E54494E55CA
:1024E00045002573207673202573006D6174657235
:1024F00069616C2E00666F72206120646966666592
:1025000072656E7400546869732066696C65206931
:102510007320637265617465640043414E43454CAA
:1025200000434F4E54494E55450041626F7274202E
:10253000746865207072696E743F004E4F00594593
:1025400053004320005072696E74657220636F6F90
:102550006C696E6720646F776E004241434B205474
:102560004F204D454E5500746865207072696E7439
:102570002E00596F752063616E2072656D6F7665F0
:10258000005072696E742066696E697368656400D4
:102590004241434B20544F204D454E55004C45443D
:1025A000204272696768746E657373005265747255
:1025B000616374696F6E004D6174657269616C204E
:1025C000666C6F770046616E2073706565640054B9
:1025D000656D7065726174757265005370656564D0
:1025E0000041626F7274003C2052455455524E00B7
:1025F0002500250025004300430025004300432F0C
:1026000000436C69636B20746F2072657475726E21
:10261000004E6F7A7A6C652074656D7065726174B6
:102620007572653A0025004272696768746E657359
:10263000730025004D6174657269616C20666C6F72
:102640007700250046616E20737065656400250083
:102650005072696E742073706565640054554E4500
:102660000052657472616374206C656E67746800F3
:102670003F3F3F00526574726163742073706565FB
:1026800064003C2052455455524E006D6D2F7365C9
:1026900063006D6D006D6D2F73656300526574721C
:1026A000616374207370656564006D6D00526574BC
:1026B00072616374206C656E677468005245545291
:1026C000414354494F4E004D363031205835205942
:1026D00035205A2569204C25690020736563002048
:1026E0006D696E0020686F75720020686F75727377
:1026F00000627574746F6E20746F20636F6E7469FE
:102700006E756500556C74696D616B657221205042
:102710007265737320746865007374617274757088
:10272000206F6620796F75720057656C636F6D65F9
:1027300020746F2074686520666972737400312F8D
:10274000323100434F4E54494E55450047312046E3
:102750002569205A2569205825692059256900478F
:102760003238205A30205830205930006275696C58
:1027700064706C6174652E006F662061646A7573A5
:1027800074696E6720796F7572007468726F75670F
:1027900068207468652070726F63657373004920E8
:1027A00077696C6C20677569646520796F75004383
:1027B000414E43454C00434F4E54494E554500470A
:1027C0003120462569205A256900473238205A3081
:1027D00000612066697273742072756E2077697A61
:1027E0006172642E0077616C6B20796F752074685C
:1027F000726F7567680066697273742073746172B2
:1028000074757020492077696C6C0042656361754E
:102810007365207468697320697320746865003279
:102820002F323100434F4E54494E55450047312019
:10283000462569205A2569205825692059256900AF
:1028400047323820583020593000676F696E672052
:10285000746F20646F2074686174206E6F772E002F
:1028600061646A7573746D656E74732C207765206E
:10287000617265007765206E65656420746F206401
:102880006F20736F6D6500416674657220747261AC
:102890006E73706F72746174696F6E00332F3231B2
:1028A00000434F4E54494E55450047312046256957
:1028B000205A300047312046256920582569205983
:1028C000256900473120462569205A350066726F18
:1028D0006D20746865206275696C64706C617465E4
:1028E0002E0061206D696C6C696D65746572206184
:1028F00077617900756E74696C20746865206E6FFD
:102900007A7A6C6520697300526F74617465207403
:10291000686520627574746F6E00342F3231004325
:102920004F4E54494E554500434F4E54494E554520
:1029300000473120462569205A300047312046257E
:1029400069205825692059256900473120462569A5
:10295000205A350066726F6D207468652062756953
:102960006C64706C6174652E0069732061206D6900
:102970006C6C696D65746572206177617900736351
:102980007265772074696C6C20746865206E6F7A4C
:102990007A6C65005475726E206C65667420627581
:1029A000696C64706C61746500352F323100434F7F
:1029B0004E54494E55450066726F6D20746865200F
:1029C0006275696C64706C6174652E006973206156
:1029D000206D696C6C696D657465722061776179D1
:1029E0000073637265772074696C6C20746865206D
:1029F0006E6F7A7A6C65005475726E2072696768C2
:102A000074206275696C64706C61746500362F3275
:102A10003100434F4E54494E55450047312046251D
:102A200069205A3000473120462569205825692001
:102A300059256900473120462569205A35007468B8
:102A400065206275696C64706C617465206C657674
:102A5000656C2E00706170657220746F2066696EFF
:102A6000652D74756E65006E6F77207573652061D6
:102A7000207368656574206F6600526570656174C7
:102A8000207468697320737465702C2062757400FB
:102A9000372F323100434F4E54494E55450062693D
:102AA0007420726573697374616E63652E00756E50
:102AB00074696C20796F75206665656C20610062B1
:102AC00075696C64706C61746520616E64206E6FF2
:102AD0007A7A6C6500536C6964652061207061705E
:102AE0006572206265747765656E00382F3231003B
:102AF000434F4E54494E554500434F4E54494E5551
:102B00004500746865206C65667420636F726E653D
:102B1000722E2E2E00526570656174207468697380
:102B200020666F7200392F323100434F4E54494EA8
:102B300055450020746F6F206C6F6E672065787448
:102B4000727573696F6E2070726576656E746564F8
:102B50000020636F6C6420657874727573696F6EA2
:102B60002070726576656E746564006563686F3A9F
:102B700000801506060606FEFEFEFEFC00000000B4
:102B8000000000FCFEFEFEFC0000000EFEFEFEFE4D
:102B90000000E0FCFEFEFCE0E0000000CECECE0037
:102BA0000000C0C0C0C0C0C08000000000000080A5
:102BB000C0C0800000000000008080C0C0C0C0C055
:102BC000C0C080800000000006FEFEFEFE00000087
:102BD0000080C0C0C00000000000008080C0C0C0F5
:102BE00080808000000000C0C0C0C00080C0C0C0A5
:102BF000C08000000000007FFFFFFFFF800000009A
:102C0000000080FFFFFFFFFF00000000FFFFFFFF4D
:102C1000000000FFFFFFFF0000000000FFFFFF00BB
:102C2000000081F1FFFF3F0F3FFFFCF0F0FCFF3F92
:102C30000F3FFFFEF880000000C1E1F1F1713101AA
:102C40000183FFFFFFFC000000FFFFFFFF000C3EC1
:102C5000FFFFF7C301000000FCFEFF8703113131C5
:102C6000333F3F3F1E000001FFFFFFFF070301014D
:102C70000101000000000000010307070F0F0F0F04
:102C80000F0F0F0707070F0F06000000070F0F07B2
:102C9000000000070F0F0700000000000F0F0F00DB
:102CA00000060F0F070100000001070F0F070100CA
:102CB000000001070F0F06000003070F0F0E0E069E
:102CC0000703070F0F07000000070F0F07000000A2
:102CD00000030F0F0F060000000307070F0E0E0E74
:102CE0000E0E0E06000000000F0F0F0F0000000078
:102CF00000000043616E6E6F74206F70656E20730C
:102D000075626469720057726974696E6720746FC6
:102D10002066696C653A20002E006F70656E206633
:102D200061696C65642C2046696C653A20002E0050
:102D30006F70656E206661696C65642C2046696CF5
:102D4000653A200046696C652073656C656374653F
:102D500064002053697A653A200046696C65206FEB
:102D600070656E65643A20002E006F70656E206697
:102D700061696C65642C2046696C653A20007C3C76
:102D80003E5E2B3D3F2F5B5D3B2C2A225C0024F4F2
:102D9000D43050C38E20C2A24017828B7011127A99
:102DA000910D816CD90AA861E108C7586607615185
:102DB00043061E4B5D05C145A7041A411104093D98
:102DC0009803713931034036DB0265339102D43008
:102DD0005402802E1D02632CEE01752AC501B02815
:102DE000A001102781018F2564012B244B01E022D3
:102DF0003401AC211F018D200D01801FFC00841EB9
:102E0000ED00971DDF00B81CD200E61BC600201B9A
:102E1000BC00641AB200B219A8000A19A0006A180E
:102E20009900D117910040178B00B5168400311618
:102E30007E00B31579003A157300C7146F0058145B
:102E40006A00EE1366008813630025135E00C71244
:102E50005B006C12570015125400C1115100701123
:102E60004F0021114B00D61049008D10470046102D
:102E7000440002104200C00F4000800F3E00420F8D
:102E80003C00060F3B00CB0E3800930E37005C0E63
:102E90003500270E3400F30D3200C10D3100900DC6
:102EA0003000600D2E00320D2D00050D2C00D90CC8
:102EB0002B00AE0C2900850C29005C0C2700350C7A
:102EC00027000E0C2600E80B2400C40B2400A00BE6
:102ED00023007D0B23005A0B2100390B2100180B16
:102EE0002000F80A1F00D90A1E00BB0A1E009D0A16
:102EF0001D00800A1D00630A1C00470A1B002C0AE3
:102F00001B00110A1A00F7091A00DD091900C4098B
:102F10001900AB091900920917007B091800630911
:102F200017004C09160036091600200916000A0978
:102F30001500F5081500E0081400CC081400B808C6
:102F40001400A4081400900813007D0812006B08F8
:102F50001300580812004608120034081100230814
:102F600011001208110001081100F0071000E0071D
:102F70001000D0071000C0071000B0070F00A10715
:102F8000100091070E0083070F0074070F006507FC
:102F90000E0057070E0049070E003B070D002E07D5
:102FA0000E0020070D0013070D0006070D00F9069F
:102FB0000C00ED060D00E0060C00D4060C00C8065F
:102FC0000C00BC060C00B0060C00A4060B00990611
:102FD0000C008D060B0082060B0077060B006C06BA
:102FE0000B0061060A0057060B004C060A00420659
:102FF0000A0038060A002E060A0024060A001A06ED
:103000000A001006090007060A00FD050900F4057C
:103010000900EB050900E2050900D9050900D00502
:103020000900C7050900BE050900B5050800AD0582
:103030000800A50509009C050800940508008C05FA
:103040000800840508007C050800740508006C056C
:103050000700650508005D050700560508004E05D8
:10306000070047050700400508003805070031053F
:1030700007002A050700230507001C0506001605A2
:1030800007000F0507000805060002050700FB04FE
:103090000600F5040700EE040600E8040600E2045A
:1030A0000700DB040600D5040600CF040600C904AF
:1030B0000600C3040600BD040600B7040600B10400
:1030C0000500AC040600A6040600A00405009B044D
:1030D000060095040500900406008A040500850496
:1030E0000500800406007A040500750405007004DC
:1030F00005006B04050066040500610405005C041E
:10310000050057040500520405004D04050048045D
:103110000500430405003E0404003A04050035049C
:103120000500300404002C040500270404002304D7
:1031300005001E0404001A0404001604050011040E
:1031400004000D0404000904050004040400000444
:103150000400FC030400F8030400F4030400F0037B
:103160000400EC030400E8030400E4030400E003AB
:103170000400DC030400D8030400D4030400D003DB
:103180000400CC030400C8030300C503030024F4B7
:1031900004D9201BC40C5C0E9804C4095F026507A7
:1031A0007101F405F900FB04B30048048700C10372
:1031B00069005803550003034500BE023A0084022B
:1031C000310053022A002902250004022000E401F4
:1031D0001C00C8011900AF011700980114008401F8
:1031E0001300710110006101100051010E00430134
:1031F0000D0036010B002B010B0020010B00150107
:1032000009000C01090003010800FB000800F3009D
:103210000800EB000700E4000600DE000600D8000E
:103220000600D2000600CC000500C7000500C20061
:103230000500BD000400B9000400B5000400B100A1
:103240000400AD000400A9000400A5000300A200D2
:1032500003009F0004009B000300980003009500FA
:10326000020093000300900003008D0002008B0019
:103270000300880002008600020084000300810031
:1032800002007F0002007D0002007B000200790046
:103290000200770001007600020074000200720054
:1032A0000100710002006F0002006D0001006C005F
:1032B00002006A0001006900020067000100660068
:1032C000010065000100640002006200010061006D
:1032D0000100600001005F0002005D0001005C0071
:1032E00001005B0001005A00010059000100580074
:1032F0000100570001005600010055000100540074
:103300000100530000005300010052000100510071
:103310000100500001004F0001004E0000004E006F
:1033200001004D0001004C0001004B0000004B006B
:1033300001004A0001004900010048000000480067
:103340000100470001004600000046000100450062
:10335000000045000100440001004300000043005C
:103360000100420000004200010041000000410055
:103370000100400001003F0000003F0001003E004E
:1033800000003E0001003D0000003D0001003C0047
:1033900000003C0000003C0001003B0000003B003E
:1033A00001003A0000003A00010039000000390035
:1033B000010038000000380000003800010037002C
:1033C0000000370001003600000036000000360023
:1033D0000100350000003500000035000100340018
:1033E000000034000000340001003300000033000E
:1033F0000000330001003200000032000000320003
:1034000001003100000031000000310001003000F7
:10341000000030000000300001002F0000002F00ED
:1034200000002F0000002F0001002E0000002E00E1
:1034300000002E0001002D0000002D0000002D00D6
:1034400000002D0001002C0000002C0000002C00CA
:1034500000002C0001002B0000002B0000002B00BE
:1034600000002B0001002A0000002A0000002A00B2
:1034700000002A00010029000000290000002900A6
:103480000000290000002900010028000000280099
:10349000000028000000280000002800010027008C
:1034A0000000270000002700000027000000270080
:1034B0000100260000002600000026000000260073
:1034C0000000260001002500000025000000250066
:1034D0000000250000002500000025000100240058
:1034E000000024000000240000002400000024004C
:1034F000010023000000230000002300000023003F
:10350000000023000000230000002300010022002F
:103510000000220000002200000022000000220023
:103520000000220001002100000021000000210015
:103530000000210000002100000021000000210007
:1035400001002000000020000000200000002000FA
:1035500000002000000020000000200000002000EB
:1035600001001F0000001F0000001F0000001F00DE
:1035700000001F0000001F0000001F0001001E00CF
:1035800000001E0000001E0000001E000000457824
:10359000706F727420746F20534400496D706F72A5
:1035A000742066726F6D20534400437573746F6DA1
:1035B000697A65003C2052455455524E002500461C
:1035C000616E3A200043002500466C6F773A006D2B
:1035D0006D004C6F61647320616C6C206D6174656B
:1035E0007269616C7300536176657320616C6C2045
:1035F0006D6174657269616C73004D6F64696679A1
:10360000207468652073657474696E6773004D413A
:1036100054455249414C0053656C656374656420A0
:103620006D6174657269616C3A004F4B005265744C
:1036300072616374696F6E003F3F3F0053746F7235
:10364000652061732070726573657400466C6F77D6
:1036500020250046616E004469616D6574657200E5
:1036600054656D7065726174757265003C205245D9
:103670005455524E00250025006D6D004320004337
:10368000200025004D6174657269616C20666C6F65
:103690007700250046616E207370656564006D6D6E
:1036A000004D6174657269616C204469616D657477
:1036B0006572004D4154455249414C005265736555
:1036C0006E643A20006F6B0010E2EFE111241FBE20
:1036D000CFEFD1E2DEBFCDBF00E00CBF13E0A0E032
:1036E000B2E0EEE1FEED01E00BBF02C007900D92EB
:1036F000AE32B107D9F729E1AEE2B3E001C01D92C5
:10370000A33FB207E1F71BE1C5E6DBE100E006C03D
:1037100021970109802FFE010E9453EEC436D10784
:1037200080E00807A9F70E9457D50C94FEEE0C9490
:1037300000002F923F924F925F926F927F928F92F2
:103740009F92AF92BF92CF92DF92EF92FF920F9330
:103750001F93CF93DF93CDB7DEB7CB56D1090FB60A
:10376000F894DEBF0FBECDBF1092AE0F87E40E946B
:10377000DF5BF82E882309F420C30E94055C0E94B9
:10378000E4EB6A30710509F48EC084F4623071058F
:1037900081F124F477FF23C00C94913563307105D7
:1037A00081F164307105C1F10C9491356A35710570
:1037B00009F4C3C254F46B30710509F40AC16C31C9
:1037C000710509F47CC10C9491356B35710509F4D0
:1037D000B8C26C35710509F4B9C20C949135809169
:1037E000B004811106C00E949ED30E944B7D0C94B0
:1037F0006D3B8091B004811104C00E940B7E81E07A
:1038000007C08091B004811107C00E940B7E80E048
:103810000E940A7A0C946D3B80E50E94DF5B88234E
:1038200039F00E94055C0E94EAEB6B017C0103C049
:10383000C12CD12C760183E50E94DF5B882361F0E7
:103840000E94055C20E030E04AE754E40E94A9E2CF
:103850000E94EAEB6B017C010E941D8F0E94878908
:10386000C60ED71EE81EF91E0E94878960930308C2
:1038700070930408809305089093060881E0809374
:10388000AE0F0E9487896C157D058E059F0510F08F
:103890000C9491350E944E8C0E9466790E94A86615
:1038A0000E9489AFEECF8091E80781110C94913589
:1038B00080915B0B90915C0BA0915D0BB0915E0BC6
:1038C0008093C80A9093C90AA093CA0AB093CB0AFE
:1038D00080915F0B9091600BA091610BB091620B96
:1038E0008093CC0A9093CD0AA093CE0AB093CF0ACE
:1038F0008091630B9091640BA091650BB091660B66
:103900008093D00A9093D10AA093D20AB093D30A9D
:10391000C090670BD090680BE090690BF0906A0B39
:10392000E091830B24E0E29FF0011124E158F44F71
:103930002081318142815381609142027091430222
:1039400080914402909145020E9473EB9B01AC016F
:10395000C701B6010E9490EA9B01AC016093D40AB2
:103960007093D50A8093D60A9093D70A8090250247
:1039700090902602A0902702B090280280913E02EB
:1039800090913F02A0914002B091410280932502A4
:1039900090932602A0932702B0932802C701B60194
:1039A0000E9490EA6093DF197093E0198093E11907
:1039B0009093E21981E08093E8070E944B7D80920A
:1039C000250290922602A0922702B09228020C941F
:1039D00091358091E807882311F40C9491358091FA
:1039E0005B0B90915C0BA0915D0BB0915E0B809393
:1039F000C80A9093C90AA093CA0AB093CB0A8091CF
:103A00005F0B9091600BA091610BB091620B809362
:103A1000CC0A9093CD0AA093CE0AB093CF0A80919E
:103A2000630B9091640BA091650BB091660B809332
:103A3000D00A9093D10AA093D20AB093D30A2091CE
:103A4000DF193091E0194091E1195091E21960912C
:103A5000670B7091680B8091690B90916A0B0E94C3
:103A600091EA6093D40A7093D50A8093D60A909312
:103A7000D70AC0902502D0902602E0902702F0904D
:103A800028028091500290915102A0915202B0916F
:103A900053028093250290932602A0932702B093AD
:103AA00028021092E8070E944B7DC0922502D09216
:103AB0002602E0922702F09228020C94913585E0CC
:103AC0008093AE0F8091250290912602A09127024B
:103AD000B09128028093300390933103A093320376
:103AE000B093330380913C0290913D0290932F0359
:103AF00080932E0384E690E090933D0280933C02F5
:103B00000E948789609303087093040880930508D6
:103B10009093060811E01093130280915B0B909133
:103B20005C0BA0915D0BB0915E0B8093C80A9093E3
:103B3000C90AA093CA0AB093CB0A80915F0B9091F7
:103B4000600BA091610BB091620B8093CC0A9093B3
:103B5000CD0AA093CE0AB093CF0A8091630B9091C7
:103B6000640BA091650BB091660B8093D00A909383
:103B7000D10AA093D20AB093D30A8091670B909197
:103B8000680BA091690BB0916A0B8093D40A909353
:103B9000D50AA093D60AB093D70A109225021092A4
:103BA0002602109227021092280288E50E94DF5B0D
:103BB000882311F080E009C089E50E94DF5B811154
:103BC000F9CF8AE50E94DF5B81278093040281118F
:103BD0000C94963588E50E94DF5B882331F089E5F7
:103BE0000E94DF5B81110C94963580910402811153
:103BF0000C94623688E50E94DF5B81110C9462367A
:103C00008091040281110C94683689E50E94DF5B83
:103C100081110C9468368091040281110C946E36E7
:103C20008AE50E94DF5B81110C946E3688E50E9464
:103C3000DF5B8823D1F00E94FA5B672B682B692B2E
:103C4000A1F00E94055C20913F0B3091400B409108
:103C5000410B5091420B0E9491EA60935B0B709371
:103C60005C0B80935D0B90935E0B89E50E94DF5B9C
:103C70008823D1F00E94FA5B672B682B692BA1F097
:103C80000E94055C2091430B3091440B4091450B01
:103C90005091460B0E9491EA60935F0B7093600B0A
:103CA0008093610B9093620B8AE50E94DF5B88230F
:103CB000D1F00E94FA5B672B682B692BA1F00E9460
:103CC000055C2091470B3091480B4091490B509176
:103CD0004A0B0E9491EA6093630B7093640B80938C
:103CE000650B9093660B0E946A9B10921302809161
:103CF000300390913103A0913203B091330380934C
:103D0000250290932602A0932702B0932802809167
:103D10002E0390912F0390933D0280933C020E94CA
:103D20008789609303087093040880930508909333
:103D300006080E9463CF0C9491351092E8190C94F8
:103D4000913581E08093E8190C94913585E40E94C7
:103D5000DF5B811102C00E941D8F25E0C22E23E08F
:103D6000D22E3BE5E32E3BE0F32E10E0D6018D9101
:103D70006D010E94DF5B8823C1F0133061F40E9463
:103D8000055CF701608371838283938387E69BE000
:103D90000E9428D00AC00E94055CD7016D937D93D4
:103DA0008D939C9313970E946A9B1F5FB4E0EB0E68
:103DB000F11C1430D9F60C9491358DE40E94DF5B30
:103DC000882311F40C941D330E94055C0E94E4EBDF
:103DD0006C38710509F403C40CF0AAC06035710594
:103DE00009F436C60CF04CC06731710509F4F1C115
:103DF00034F56231710509F438C69CF477FF02C0CE
:103E00000C949135623071050CF475C16131710506
:103E100011F00C94913515984698439840980C945D
:103E200091356531710509F4C8C10CF0CAC164311E
:103E3000710511F00C949135E0E4F6E075C16B3139
:103E4000710509F403C23CF46931710509F4ECC150
:103E50000CF4D5C1EDC16E31710509F497C234F48B
:103E60006C31710509F460C20C9491356F317105A4
:103E700009F4F8C26A32710509F450C30C94913503
:103E80006A36710509F46FC524F56435710509F4C6
:103E9000ECC554F46235710509F4DEC50CF0E0C5DB
:103EA0000A9A12980C9491356C35710509F430C654
:103EB00034F46535710509F410C60C9491356836F3
:103EC000710509F465C36936710509F499C30C9449
:103ED00091356337710509F4A1C68CF46D3671050F
:103EE00009F434C46237710509F4B9C66B3671053B
:103EF00011F00C9491351092C5100C9491356737E0
:103F0000710509F475C734F46537710509F495C670
:103F10000C9491356837710509F466C769377105E6
:103F200011F00C94913581E0809313020C9491353B
:103F3000643FE1E07E0711F40C94E72D0CF05FC0C4
:103F4000613D710511F40C949E2844F56C3C71059B
:103F500011F40C94AB2774F4693C710509F4BBC7E8
:103F60006B3C710509F4D9C76E3B710511F00C94D7
:103F7000913545C46E3C710511F40C942D2814F450
:103F80000C94CD276F3C710511F40C944B28603DC7
:103F9000710511F40C947C280C9491356D3221E05C
:103FA000720711F40C94B72994F46D3D710511F466
:103FB0000C9413296C3241E0740711F40C942A29F3
:103FC0006C3D710511F00C9491350C9402296F32FF
:103FD00051E0750711F40C94982A14F40C94832A78
:103FE000603991E0790711F40C94E42D6139714046
:103FF00011F00C9491350E94948E0C949135603A96
:10400000B3E07B0709F4F9C19CF56935F2E07F075D
:1040100011F40C94F02D94F4663F31E0730711F421
:104020000C94ED2D14F40C94EA2D673F714011F0BF
:104030000C9491350E94A85E0C9491356E3582E007
:10404000780711F40C94B8303CF46D35724011F4DB
:104050000C94FF2F0C9491356B38B3E07B0711F46F
:104060000C9475316B39734009F49EC10C949135F1
:104070006231F7E27F0711F40C94F83124F56031D6
:1040800037E2730711F40C94B33114F00C94B63189
:10409000673E734011F00C9491351092B0048091FA
:1040A000070890910808A0910908B0910A08809328
:1040B000B1049093B204A093B304B093B4040E94EB
:1040C0002AD50C949135643187E2780711F40C9469
:1040D000793214F40C9449326531A7E27A0711F46D
:1040E0000C94A9326A31774211F00C949135E3EACD
:1040F000F4E00C94E03281E08093B20D8091B20D37
:10410000882311F40C9491350E944E8C0E9466799C
:104110000E94A8660E9489AFF1CF9091C00095FFE0
:10412000FCCF8093C600319684918111F6CF8091A7
:10413000C00085FFFCCF8AE08093C6001092A80FD4
:104140001092A70F40E050E0BA0184EE9DE00E947B
:1041500056C28BE1E4EEFDE0DE01159601900D9272
:104160008A95E1F78091E20D9091E30D9C838B831A
:1041700081EF92E09A838983BE016F5F7F4F8DE26A
:1041800093E00E94E4BECE0101960E946376E2E3D2
:10419000F6E08491882341F09091C00095FFFCCF18
:1041A0008093C6003196F5CF8091C00085FFFCCF8B
:1041B0008AE08093C6000C9491350E94FC990C947F
:1041C00091351092B10D1092B20D1092DF0D0C943A
:1041D00091350091B5041091B6040C5F1F4F6AE24F
:1041E00070E0C8010E94BBEE009719F0FC01319706
:1041F000108261E0C8010E94FFBC0C94913580914F
:10420000DF0D882329F081E08093B10D1092B20D6B
:104210000E94878960932004709321048093220474
:10422000909323040C9491350E94D8BE0C94913540
:104230008091DF0D882311F40C9491358091590FF2
:10424000882311F40C9474360C9491358091DF0D11
:104250008823A9F1E1EBF2E08491882341F0909169
:10426000C00095FFFCCF8093C6003196F5CF6091DA
:10427000A20F7091A30F8091A40F9091A50F4AE017
:104280000E940098EFEAF2E08491882341F0909137
:10429000C00095FFFCCF8093C6003196F5CF6091AA
:1042A0009A0F70919B0F80919C0F90919D0F4AE007
:1042B0000E9400988091C00085FFFCCF11C0EFE9FB
:1042C000F2E08491882341F09091C00095FFFCCFEB
:1042D0008093C6003196F5CF8091C00085FFFCCF5A
:1042E0008AE08093C6006091590F662311F40C9404
:1042F0009135E3E9F2E08491882341F09091C00088
:1043000095FFFCCF8093C6003196F5CF70E080E03A
:1043100090E00E9475988091C00085FFFCCF8AE0F4
:104320008093C6000C9491358091B5049091B604A9
:104330006AE270E004960E94BBEE8C01892BE1F0EA
:104340002091D0073091D10740E6429FC001439FA2
:10435000900D11246EE470E080539B4F0E94BBEEE1
:1043600060E270E00E94BBEE01969093B6048093E9
:10437000B504F801319710828091B5049091B6048C
:1043800060E004960E94FFBC0C9491358091DF0D93
:10439000882311F40C9491358091590F882311F4DE
:1043A0000C948B360C9491350091B5041091B604A1
:1043B0000C5F1F4F6AE270E0C8010E94BBEE0097DD
:1043C00019F0FC013197108261E0C8010E94FFBC26
:1043D0008091DF0D882329F081E08093B10D109248
:1043E000B20D0E948789609320047093210480930A
:1043F0002204909323040C9491358091B5049091FC
:10440000B6046AE270E005960E94BBEE8C01892B2F
:10441000E1F02091D0073091D10740E6429FC001E2
:10442000439F900D11246EE470E080539B4F0E94D7
:10443000BBEE60E270E00E94BBEE01969093B60482
:104440008093B504F801319710828091B504909162
:10445000B60421E02093B00D60E005960E94FFBCF9
:104460000C9491350E9487896093240470932504ED
:104470008093260490932704009120041091210436
:104480002091220430912304601B710B820B930B4B
:1044900028EE33E040E050E00E9455EACA01B9013D
:1044A0002CE330E040E050E00E9455EA7F936F93A8
:1044B0003F932F9383E296E09F938F938E010F5F3C
:1044C0001F4F1F930F930E94D4E6E7E3F7E0849118
:1044D0000FB6F894DEBF0FBECDBFE7E3F7E0882349
:1044E00049F09091C00095FFFCCF8093C6003196B3
:1044F0008491F5CFF8018191882339F09091C00023
:1045000095FFFCCF8093C600F6CF8091C00085FF59
:10451000FCCF8AE08093C6000C94913583E50E941D
:10452000DF5B882311F40C9491350E94055C0E9496
:10453000E4EBF62EE72E862F9E2D8C0180E50E945F
:10454000DF5B882331F00F3F110509F010F40C9464
:10455000FC3788E090E0E8E5F2E0219131912817FE
:10456000390711F40C94913522E0E039F207A9F7EC
:104570008730910519F4F092C51004C097FF02C06E
:104580000C9491356F2D7E2D0E949B880C94913553
:1045900088E690E00E946B7681110C94913583E55A
:1045A0000E94DF5B882311F40C94913500910B0875
:1045B0000E94055C10E00E94E4EBF801EE0FFF1F83
:1045C000EB50F54F718360836430714014F40C94A8
:1045D000913584E091E0918380830C94913583E55B
:1045E0000E94DF5B882311F40C9491350E94055CD6
:1045F0000E94E4EB7093F40A6093F30A0C949135F3
:1046000089E690E00E946B7681110C949135EDE182
:10461000F6E08491882341F09091C00095FFFCCF93
:104620008093C6003196F5CFE0910B0844E0E49FFB
:10463000F0011124E151F54F6081718182819381F4
:1046400041E00E948798EAE1F6E08491882341F0F6
:104650009091C00095FFFCCF8093C6003196F5CFB6
:10466000E0910B08F0E0EE0FFF1FEB50F54F60817B
:104670007181072E000C880B990B0E9409E741E01D
:104680000E948798E6E1F6E08491882341F09091BA
:10469000C00095FFFCCF8093C6003196F5CF6091A6
:1046A000EB0A7091EC0A8091ED0A9091EE0A41E0DC
:1046B0000E948798E3E1F6E08491882341F090918D
:1046C000C00095FFFCCF8093C6003196F5CF609176
:1046D000F30A7091F40A072E000C880B990B0E94C4
:1046E00009E741E00E948798EFE0F6E08491882393
:1046F00041F09091C00095FFFCCF8093C6003196A9
:10470000F5CFE0910B08F0E0E750F54F608170E0E5
:1047100080E090E00E947598EAE0F6E084918823BA
:1047200041F09091C00095FFFCCF8093C600319678
:10473000F5CF6091F80A70E080E090E00E947598F3
:104740008091C00085FFFCCF0C9418338DE690E07B
:104750000E946B7681110C94913583E08093AE0FAB
:1047600083E50E94DF5B8823A9F000910B080E947B
:10477000055C10E00E94E4EBF801EE0FFF1FEB5028
:10478000F54F718360836430714024F084E091E0E0
:10479000918380830E9487892B013C01E0910B0863
:1047A0000E2F10E0F801EE0FFF1FEB50F54F608168
:1047B0007181072E000C880B990B0E9409E7F80104
:1047C000EE0FFF1FEE0FFF1FE151F54F11E02081AB
:1047D0003181428153810E94D0EC18160CF010E018
:1047E00088248A94982C54016FEF262E65E0362E8B
:1047F0007DEFE72E75E0F72E0AE00C94983884E000
:104800008093AE0F83E50E94DF5B882341F00E9416
:10481000055C0E94E4EB7093F40A6093F30A0E9433
:1048200087894B015C010AEF15E076EFE72E75E012
:10483000F72EE2EFCE2EE5E0DE2EFAE07F2E80911D
:10484000F30A9091F40A0297BC01990F880B990B17
:104850000E9409E79B01AC016091EB0A7091EC0AA0
:104860008091ED0A9091EE0A0E9403E787FF6FC0E6
:104870000E948789DC01CB0188199909AA09BB0923
:10488000893E9340A105B10508F458C0E091830B1F
:1048900024E0E29FF0011124E151F54F6081718124
:1048A00082819381F8012491EAEFF5E0222349F017
:1048B0003091C00035FFFCCF2093C6003196249183
:1048C000F5CF42E00E948798F7018491E6EFF5E08A
:1048D000882349F09091C00095FFFCCF8093C600DB
:1048E00031968491F5CF6091830B70E080E090E089
:1048F0000E947598F6018491E2EFF5E0882349F073
:104900009091C00095FFFCCF8093C60031968491B2
:10491000F5CF6091EB0A7091EC0A8091ED0A9091CD
:10492000EE0A41E00E9487988091C00085FFFCCF8D
:104930007092C6000E9487894B015C010E944E8CD8
:104940000E9466790E94A8660E9489AF78CF0E9473
:1049500087896093030870930408809305089093F7
:1049600006080C94913583E50E94DF5B882309F4E7
:1049700061C00E94055C6B017C0180911402682F6C
:1049800070E080E090E00E9409E79B01AC01C70164
:10499000B6010E94A9E220E030E048EC52E40E9417
:1049A00073EB20E030E0A9010E9403E787FD3BC0E4
:1049B0000E94055C6B017C0180911402682F70E0FD
:1049C00080E090E00E9409E79B01AC01C701B601BD
:1049D0000E94A9E220E030E048EC52E40E9473EB30
:1049E00020E030E04FE753E40E94D0EC1816ECF0E2
:1049F0000E94055C6B017C0180911402682F70E0BD
:104A000080E090E00E9409E79B01AC01C701B6017C
:104A10000E94A9E220E030E048EC52E40E9473EBEF
:104A20000E94EAEB03C060E001C06FEF6093C51025
:104A30000C94913580911402FFEF8F9FC0011124D7
:104A400064E670E00E9424EE6093C5100C949135EA
:104A50000A9A129A0C9491351092EC190C94913593
:104A600081E08093EC190C94913583E50E94DF5B23
:104A70008823A1F00E94055C20E030E04AE754E47E
:104A80000E94A9E20E94EAEB609321027093220245
:104A900080932302909324020C94913588E50E9420
:104AA000DF5B81110C94463989E50E94DF5B81113F
:104AB0000C9446398AE50E94DF5B81110C944639DB
:104AC00085E40E94DF5B81110C9446390E941D8FA2
:104AD000409A0E942C8F0C94913583E50E94DF5BF5
:104AE000882311F40C9491350E94055C20E030E09D
:104AF0004AE754E40E94A9E20E94EAEB6093FF07B0
:104B00007093000880930108909302080C949135EB
:104B100055E0852E53E0952E04E91BE069EAA62EA8
:104B200060E1B62E26EC34E13DAF2CAF312CD40140
:104B30008D914D010E94DF5B882309F45EC0B3E0D4
:104B40003B1254C00E94055C2B013C0120E030E088
:104B500040EA51E40E9403E787FF41C0A3019201AC
:104B6000F80160817181828193810E9473EB6B01F6
:104B70007C019B01AC016091951070919610809121
:104B80009710909198100E94A9E2609395107093ED
:104B900096108093971090939810A7019601D501D5
:104BA0006D917D918D919C910E94A9E2F5016083A8
:104BB000718382839383ACADBDAD6D917D918D91F9
:104BC0009C910E9407E7A70196010E94A9E20E941A
:104BD000EAEBECADFDAD6083718382839383D801F2
:104BE0004D925D926D927C92139707C00E94055C76
:104BF000F801608371838283938333940C5F1F4F2A
:104C0000F4E0AF0EB11C2CAD3DAD2C5F3F4F3DAF7E
:104C10002CAF34E033128BCF0C949135ECE4F5E0FB
:104C20008491882311F40C9491359091C00095FFE4
:104C3000FCCF8093C6003196F3CF8091B50490915C
:104C4000B6046AE270E005960E94BBEE009711F48C
:104C50000C949135FC01319710820C949135E9E464
:104C6000F5E08491882341F09091C00095FFFCCF3E
:104C70008093C6003196F5CF60915B0B70915C0B11
:104C800080915D0B90915E0B42E00E948798E6E474
:104C9000F5E08491882341F09091C00095FFFCCF0E
:104CA0008093C6003196F5CF60915F0B7091600BD9
:104CB0008091610B9091620B42E00E948798E3E43F
:104CC000F5E08491882341F09091C00095FFFCCFDE
:104CD0008093C6003196F5CF6091630B7091640BA1
:104CE0008091650B9091660B42E00E948798E0E40A
:104CF000F5E08491882341F09091C00095FFFCCFAE
:104D00008093C6003196F5CF6091670B7091680B68
:104D10008091690B90916A0B42E00E948798E5E3CD
:104D2000F5E08491882341F09091C00095FFFCCF7D
:104D30008093C6003196F5CF0E94868E0E9409E7C7
:104D40002091940B3091950B4091960B5091970BBD
:104D50000E9473EB42E00E948798E2E3F5E08491C1
:104D6000882341F09091C00095FFFCCF8093C6004E
:104D70003196F5CF81E00E94868E0E9409E720914E
:104D8000980B3091990B40919A0B50919B0B0E947C
:104D900073EB42E00E948798EFE2F5E0849188236C
:104DA00041F09091C00095FFFCCF8093C6003196F2
:104DB000F5CF82E00E94868E0E9409E720919C0B2D
:104DC00030919D0B40919E0B50919F0B0E9473EB75
:104DD00042E00E9487988091C00085FFFCCF8AE066
:104DE0008093C6000C949135109213020C94913567
:104DF000E6E1F5E08491882341F09091C00095FFB1
:104E0000FCCF8093C6003196F5CF8091C00085FF1E
:104E1000FCCF8AE08093C600EEE0F5E08491882321
:104E200041F09091C00095FFFCCF8093C600319671
:104E3000F5CF009B03C0EFEFF4E00AC0E4E0F5E03B
:104E400007C09091C00095FFFCCF8093C6003196BB
:104E500084918111F6CFE7EFF4E08491882341F04B
:104E60009091C00095FFFCCF8093C6003196F5CF9E
:104E7000049B03C0E8EEF4E00AC0EDEEF4E007C0E6
:104E80009091C00095FFFCCF8093C600319684912D
:104E90008111F6CFE0EEF4E08491882341F0909107
:104EA000C00095FFFCCF8093C6003196F5CF079BDD
:104EB00003C0E1EDF4E00AC0E6EDF4E007C0909134
:104EC000C00095FFFCCF8093C6003196849181117C
:104ED000F6CF0C94913536EDE32E34E1F32E05E058
:104EE00013E044E0D42ED00ED8018D918D010E94A4
:104EF000DF5B882349F00E94055C0E94EAEBF70122
:104F00006083718382839383F4E0EF0EF11CD012EF
:104F1000EBCF0E94D9CF0C94913599EAE92E90E11C
:104F2000F92E05E013E024E0D22ED00ED8018D91A9
:104F30008D010E94DF5B882339F00E94055CF70138
:104F40006083718382839383F4E0EF0EF11CD012AF
:104F5000EDCF0C94913583E50E94DF5B882351F0FF
:104F60000E94055C6093A1107093A2108093A3101F
:104F70009093A41084E50E94DF5B882311F40C94C5
:104F800091350E94055C6093A5107093A6108093E4
:104F9000A7109093A8100C94913583E50E94DF5BD5
:104FA000882351F00E94055C6093BD107093BE1081
:104FB0008093BF109093C01084E50E94DF5B88232C
:104FC00051F00E94055C6093C1107093C2108093F1
:104FD000C3109093C41082E40E94DF5B882361F0C9
:104FE0000E94055C0E94EAEB6093B9107093BA10BE
:104FF0008093BB109093BC1088E50E94DF5B8823F0
:1050000051F00E94055C60939D1070939E108093F8
:105010009F109093A0108AE50E94DF5B882351F0D7
:105020000E94055C6093991070939A1080939B1076
:1050300090939C1085E40E94DF5B882311F40C940C
:1050400091350E94055C6093951070939610809343
:105050009710909398100C9491351FE3E12E1BE06C
:10506000F12E05E013E083E0D82ED00ED8018D910B
:105070008D010E94DF5B882339F00E94055CF701F7
:105080006083718382839383F4E0EF0EF11CD0126E
:10509000EDCF0C94913583E50E94DF5B882351F0BE
:1050A0000E94055C60934202709343028093440225
:1050B0009093450286E40E94DF5B882351F00E94B2
:1050C000055C60933E0270933F0280934002909390
:1050D00041028AE50E94DF5B882311F40C9491352C
:1050E0000E94055C609354027093550280935602AF
:1050F000909357020C94913583E50E94DF5B8823DF
:1051000051F00E94055C6093DF197093E019809361
:10511000E1199093E21986E40E94DF5B882311F481
:105120000C9491350E94055C60935002709351027B
:1051300080935202909353020C94913583E50E9420
:10514000DF5B882311F40C9491350E94055C0E946A
:10515000E4EB6115710551F06130710569F481E08E
:105160008093E3191092E8070C9491351092E3199B
:105170001092E8070C949135E7E3F7E084918823D7
:1051800041F09091C00095FFFCCF8093C60031960E
:10519000F5CFEEEBF4E08491882341F09091C000CC
:1051A00095FFFCCF8093C6003196F5CF8091D00754
:1051B0009091D10720E6289FF001299FF00D11243E
:1051C000E053FB4F8191882339F09091C00095FF07
:1051D000FCCF8093C600F6CFECEBF4E084918823FB
:1051E00041F09091C00095FFFCCF8093C6003196AE
:1051F000F5CF8091C00085FFFCCF8AE08093C60088
:105200000C94913583E50E94DF5B882311F40C94A4
:1052100091350E94055C0E94E4EB70933D0260931F
:105220003C020C94913583E50E94DF5B882311F4E6
:105230000C9491350091830B10E00E94055C000FE7
:10524000111F0A5B1D4F0E94E4EBD8016D937C9304
:105250000C94913583E50E94DF5B882331F00E9436
:10526000055C0E94EAEB7B0103C0AEE6EA2EF12C5E
:1052700080E50E94DF5B882311F40C945F390E9463
:10528000055C0E94EAEB8B01E114F10409F443C0D0
:10529000970140E050E060E271EA87E090E00E9410
:1052A00037EE69017A01F22FED2DA701013ABFE037
:1052B0001B0710F000EA1FE09801A4EFB1E00E9484
:1052C00081EA2F2F3E2F0E9455EAB601CC0CDD1C3F
:1052D000CC0CDD1CE5E0CE1AD10880E090E0DC01CA
:1052E00082179307A407B50711F40C9491355B9AC4
:1052F0006230710518F0F6013197F1F75B98623072
:10530000710518F0F6013197F1F70196A11DB11D55
:10531000E7CF08EE13E06801E12CF12C0E946289CE
:105320004B015C01C114D104E104F10411F40C94AB
:1053300091350E946289DC01CB0188199909AA097B
:10534000BB09883E9340A105B10560F3F1E0CF1A97
:10535000D108E108F10828EE820E23E0921EA11C7C
:10536000B11CC114D104E104F10419F7DBCF80E5CD
:105370000E94DF5B882351F00E94055C60932D0240
:1053800070932E0280932F029093300289E40E9442
:10539000DF5B882381F00E94055C2DEB37E346E05C
:1053A0005DE30E94A9E26093070270930802809374
:1053B000090290930A0284E40E94DF5B882381F053
:1053C0000E94055C2DEB37E346E05DE30E9473EB42
:1053D0006093290270932A0280932B0290932C02EF
:1053E00083E40E94DF5B882351F00E94055C609398
:1053F00000027093010280930202909303020E94C4
:10540000618EE9EBF4E08491882341F09091C00033
:1054100095FFFCCF8093C6003196F5CFE5EBF4E025
:105420008491882341F09091C00095FFFCCF809338
:10543000C6003196F5CF60912D0270912E028091B9
:105440002F029091300242E00E948798E1EBF4E055
:105450008491882341F09091C00095FFFCCF809308
:10546000C6003196F5CF2DEB37E346E05DE3609162
:105470000702709108028091090290910A020E942D
:1054800073EB42E00E948798EDEAF4E08491882370
:1054900041F09091C00095FFFCCF8093C6003196FB
:1054A000F5CF2DEB37E346E05DE360912902709183
:1054B0002A0280912B0290912C020E94A9E242E0E4
:1054C0000E948798E9EAF4E08491882341F0909162
:1054D000C00095FFFCCF8093C6003196F5CF609158
:1054E000000270910102809102029091030242E059
:1054F0000E9487988091C00085FFFCCF8AE080934E
:10550000C6000C94913583E50E94DF5B882319F077
:105510000E94055C03C060E070E0CB01609348022C
:105520007093490280934A0290934B020C949135F8
:1055300085E40E94DF5B882341F00E94055C0E94A5
:10554000E4EB8B0177FF03C011C000E010E0289668
:105550001FAE289729961FAE299746E12A964FAF8E
:105560002A9753E42B965FAF2B970EC028961FAE59
:10557000289729961FAE29978CE82A968FAF2A97ED
:1055800092E42B969FAF2B9783E50E94DF5B8823E5
:1055900071F00E94055C28966FAF289729967FAF1F
:1055A00029972A968FAF2A972B969FAF2B9783E444
:1055B0000E94DF5B882349F00E94055C0E94E4EBB7
:1055C000A7967FAF6EAFA79706C0A5E0B0E0A796FD
:1055D000BFAFAEAFA7970E94878927966CAF7DAF0C
:1055E0008EAF9FAF279702301105B4F0EDEFF3E0D7
:1055F0008491882341F09091C00095FFFCCF809367
:10560000C6003196F5CF8091C00085FFFCCF8AE0BF
:105610008093C6000C949135EAEEF3E084918823E0
:1056200041F09091C00095FFFCCF8093C600319669
:10563000F5CF8091C00085FFFCCF8AE08093C60043
:105640000E94DD898FE717FF64C08093F80A2796D0
:105650002CAD3DAD4EAD5FAD279765962CAF3DAF00
:105660004EAF5FAF6597AB962CAF3DAF4EAF5FAF20
:10567000AB972C961FAE2C9730E466963FAF66979B
:105680004CE167964FAF679756E468965FAF6897AF
:1056900069961FAE69976A961FAE6A976B961FAEA2
:1056A0006B976C961FAE6C978FE790E0A0E0B0E030
:1056B00023968CAF9DAFAEAFBFAF23977FE7472E4A
:1056C000512C612C712CA3961CAE1DAE1EAE1FAECC
:1056D000A39791E06D969FAF6D9761961FAE1EAE3A
:1056E00061971CAE212C312C1EAED801A750B54FAE
:1056F000A596BFAFAEAFA597C801880F991F880FB9
:10570000991FFC01E151F54F6F96FFAFEEAF6F9718
:1057100009C0F801E750F54F808399CF0E94A86631
:105720000E9489AF8091F70A882309F45EC10E9424
:10573000318C17FF0BC0F091EB0AFCAF2090EC0A04
:105740003090ED0A2091EE0A2EAF0EC06F96AEADEE
:10575000BFAD6F97BC91BCAF6F96EEADFFAD6F97CD
:1057600021803280F381FEAF2CAD322D432D5EAD12
:1057700069966FAD69976A967FAD6A976B968FADA4
:105780006B976C969FAD6C970E94D0EC181674F0D6
:105790002CAD69962FAF69976A962FAE6A976B9674
:1057A0003FAE6B973EAD6C963FAF6C972CAD322DF4
:1057B000432D5EAD2C966FAD2C9766967FAD6697A8
:1057C00067968FAD679768969FAD68970E9403E7CD
:1057D00087FD0EC04CAD2C964FAF2C9766962FAE22
:1057E000669767963FAE67975EAD68965FAF6897BE
:1057F0006D968FAD6D97882309F475C028962FADEF
:10580000289729963FAD29972A964FAD2A972B9630
:105810005FAD2B976CAD722D832D9EAD0E94D0ECA9
:1058200018160CF0E2C00E948789DC01CB01279694
:105830002CAD3DAD4EAD5FAD2797821B930BA40BF6
:10584000B50B89389341A105B10508F4CEC0D30149
:10585000C20123962CAD3DAD4EAD5FAD2397821BAB
:10586000930BA40BB50BB595A7959795879517FF47
:1058700003C08093F80A05C0A596EEADFFADA597CD
:1058800080830E94878965966CAF7DAF8EAF9FAF96
:1058900065979B01AC0127968CAD9DADAEADBFADBC
:1058A0002797281B390B4A0B5B0BA3962CAF3DAFF8
:1058B0004EAF5FAFA39728969FAD289769969FAF8D
:1058C00069972996AFAD29976A96AFAF6A972A96DE
:1058D000BFAD2A976B96BFAF6B972B96EFAD2B970B
:1058E0006C96EFAF6C9728962FAD289729963FAD11
:1058F00029972A964FAD2A972B965FAD2B976CADC3
:10590000722D832D9EAD0E9403E787FD02C00C948B
:105910004F3B0E948789DC01CB0165962CAD3DADE4
:105920004EAD5FAD6597821B930BA40BB50B893809
:105930009341A105B10510F40C944F3B0E94878957
:1059400027966CAF7DAF8EAF9FAF2797DC01CB0161
:1059500065962CAD3DAD4EAD5FAD6597821B930B4B
:10596000A40BB50B61964EAD5FAD6197141615068D
:1059700014F40C94763923968CAD9DADAEADBFADCD
:105980002397840D951DA61DB71DB595A7959795D1
:10599000879517FD02C00C94483B8093F80A6196E6
:1059A0002EAD3FAD61972F5F3F4F61963FAF2EAF5A
:1059B000619728963FAD28972C963FAF2C97299654
:1059C0004FAD299766964FAF66972A965FAD2A9797
:1059D00067965FAF67972B968FAD2B9768968FAFC3
:1059E000689791E06D969FAF6D9720E030E040EAB8
:1059F00051E428966FAD289729967FAD29972A966E
:105A00008FAD2A972B969FAD2B970E9491EA9B0111
:105A1000AC016CAD722D832D9EAD0E94D0EC18169A
:105A2000B4F4EAE7F3E08491882341F09091C00058
:105A300095FFFCCF8093C6003196F5CF8091C000D2
:105A400085FFFCCF8AE08093C6000C9491350E94BC
:105A50008789DC01CB01AB962CAD3DAD4EAD5FAD82
:105A6000AB97821B930BA40BB50B813D9740A1050F
:105A7000B10508F44EC017FF10C0E090F80AF12CF1
:105A8000E4E7F3E084918823D9F09091C00095FF7A
:105A9000FCCF8093C6003196F5CFA596AEADBFADD5
:105AA000A597EC90F12CEEE6F3E08491882341F089
:105AB0009091C00095FFFCCF8093C6003196F5CF42
:105AC00042E06CAD722D832D9EAD0E948798EAE670
:105AD000F3E08491882341F09091C00095FFFCCFC2
